:1004D800471000600900000000081A21010001010E
:1004E8002A2C0A00010001000000F00002000000B0
:0604F8009000000200006C
:10031300E4F513F512F511F510C203C200C202C2CF
:100323000112063D7E057F008E3E8F3F75480575A1
:100333004912753C05753D1C754406754519754A8A
:1003430006754B1A90E680E030E70E853C40853D0C
:1003530041854442854543800C854440854541851C
:100363003C42853D43EE54E0700302047E75140065
:100373007515807E057F008E168F17C3743B9FFF14
:1003830074069ECF2402CF3400FEE48F0F8E0EF549
:100393000DF50CF50BF50AF509F508AF0FAE0EAD2B
:1003A3000DAC0CAB0BAA0AA909A808C31209685023
:1003B30026E515250BF582E514350AF58374CDF092
:1003C300E50B2401F50BE4350AF50AE43509F509D3
:1003D300E43508F50880C4E4F50BF50AF509F508DA
:1003E300AF0FAE0EAD0DAC0CAB0BAA0AA909A80852
:1003F300C31209685033E517250BF582E516350A54
:10040300F583E0FFE515250BF582E514350AF58341
:10041300EFF0E50B2401F50BE4350AF50AE43509A1
:10042300F509E43508F50880B785143E85153F7452
:10043300002480FF740534FFFEC3E5499FF549E5B9
:10044300489EF548C3E5419FF541E5409EF540C30D
:10045300E5439FF543E5429EF542C3E53D9FF53DE8
:10046300E53C9EF53CC3E5459FF545E5449EF544D3
:10047300C3E54B9FF54BE54A9EF54AD2E843D820A6
:1004830090E668E04409F090E65CE0443DF0D2AFCA
:10049300D20412099F538EF8C20330010712008061
:1004A300C20180031209CE3003F0120AF450EBC2EA
:1004B30003120A5120001690E682E030E704E020A0
:1004C300E1EF90E682E030E604E020E0E41209FA8E
:0504D300120AF680C5CD
:1000800090E6B9E012097902290002700102DF034B
:1000900001A206022308021D0902110A02170B0021
:1000A000EA20014321030B2200B58100B58200B58F
:1000B00083000002FFE4F546F547AF4774212FF8AF
:1000C000E6FE74402FF582E434E7F583EEF0054751
:1000D000E54770020546641A454670DEE490E68AFC
:1000E000F090E68B741AF002030B753B07C2E890A0
:1000F000E6B57401F0E490E68BF090E6B5F0D2E856
:1001000090E68BE0B53BF9000000E4F546F547C307
:10011000E547953B7480F8654698400302030BAFB2
:100120004774402FF582E434E7F583E0FE74002F36
:10013000F582E43410F583EEF00547E54770D0050D
:100140004680CC90E6B57401F0753B07E4F546F5C2
:1001500047C3E547953B7480F86546985024AF4700
:1001600074002FF582E43410F583E0FE74402FF51F
:1001700082E434E7F583EEF00547E54770D30546A2
:1001800080CFE490E68AF000000090E68BE53BF03B
:1001900000000090E6A0E020E1F9E490E6B5F0026E
:1001A000030B90E6B57401F0120AF8400302030B4A
:1001B00090E6BBE024FE602214603324FD6011143D
:1001C000602224067048E53E90E6B3F0E53F8037B4
:1001D000E54890E6B3F0E549802DE54090E6B3F0C0
:1001E000E5418023E54290E6B3F0E543801990E6CF
:1001F000BAE0FF120A26AA06A9077B01EA494B606A
:100200000DEE90E6B3F0EF90E6B4F002030B0203BC
:1002100004120ACE02030B120AE802030B120AE0D0
:1002200002030B120ABC02030B120AFA4003020378
:100230000B90E6B8E0247F601A14601F2402702D32
:10024000A200E43325E0FFA202E4334F90E740F040
:10025000E48005E490E740F0A38004E490E741F0F7
:1002600090E68AF090E68B7402F002030B0203041E
:1002700090E6B8E0B4A1047F0180027F0090E6B868
:10028000E0B421047E0180027E00EE4FFF90E6B8CC
:10029000E0B422047E0180027E00EE4FFF90E6B8BB
:1002A000E0B4A2047E0180027E00EE4F600BE49079
:1002B000E68AF090E68BF08052120AFC504D90E6F0
:1002C000B8E024FE60112402704190E6BAE0B40167
:1002D00004C2008036802D90E6BAE0602E802512A0
:1002E0000AFE502790E6B8E024FE60112402701B3D
:1002F00090E6BAE0B40104D20080108007800512B5
:100300000B00500790E6A0E04401F090E6A0E04426
:0203100080F07B
:0103120022C8
:03003300020AF0CE
:040AF00053D8EF32B6
:10063D0090E600E054E74410F090E60B7403F000F0
:10064D00000090E61274A2F000000090E61474D23F
:10065D00F000000090E61374E2F000000090E61543
:10066D007402F000000090E60174E3F0000000E475
:10067D0090E609F000000090E602F000000090E620
:10068D0003F000000090E670E04480F000000000F0
:10069D00000090E6047480F00000007402F0000089
:1006AD00007404F00000007406F00000007408F0FF
:1006BD00000000E4F000000000000090E619740C4A
:1006CD00F000000090E61AF0000000E490E61BF048
:1006DD0000000090E6227402F0000000E490E62392
:1006ED00F000000090E6247402F0000000E490E6B3
:1006FD0025F000000090E6207402F0000000E49068
:0A070D00E621F090E6187410F022C7
:1009CE0090E6A2E020E12490E7C0740AF0A3742020
:1009DE00F0E4A3F0A3F0A3F0A3F0A3F0A37402F04D
:0C09EE00E4A3F0A3F090E68F740AF0225E
:020AF400D3220B
:020AF600D32209
:020AF800D32207
:080AE00090E6BAE0F551D322C3
:100ABC0090E740E551F0E490E68AF090E68B04F084
:020ACC00D32233
:080AE80090E6BAE0F54CD322C0
:100ACE0090E740E54CF0E490E68AF090E68B04F077
:020ADE00D32221
:020AFA00D32205
:020AFC00D32203
:020AFE00D32201
:020B0000D322FE
:100A7600C0E0C083C082D2015391EF90E65D74015D
:080A8600F0D082D083D0E032F1
:1007E900C0E0C083C0825391EF90E65D7404F0D0FD
:0607F90082D083D0E03243
:100AA600C0E0C083C0825391EF90E65D7402F0D03F
:060AB60082D083D0E03283
:1008FA00C0E0C083C08290E680E030E70E853C40CD
:10090A00853D41854442854543800C854440854563
:10091A0041853C42853D435391EF90E65D7410F06A
:07092A00D082D083D0E0323F
:100A8E00C0E0C083C082D2035391EF90E65D74083C
:080A9E00F0D082D083D0E032D9
:10093100C0E0C083C08290E680E030E70E853C4095
:10094100853D41854442854543800C85444085452C
:1009510041853C42853D435391EF90E65D7420F023
:07096100D082D083D0E03208
:0104FF0032CA
:0107FF0032C7
:010B020032C0
:010B030032BF
:010B040032BE
:1008B800C0E0C083C082C0D05391EF90E65F740857
:1008C800F02099FD75520075530090E68DE0754D46
:1008D80000F54E74802553F582E434E7F583E0F59E
:1008E800990553E55370020552D0D0D082D083D0F9
:0208F800E032EC
:010B050032BD
:010B060032BC
:010B070032BB
:010B080032BA
:010B090032B9
:010B0A0032B8
:010B0B0032B7
:010B0C0032B6
:010B0D0032B5
:010B0E0032B4
:010B0F0032B3
:010B100032B2
:010B110032B1
:010B120032B0
:010B130032AF
:010B140032AE
:010B150032AD
:010B160032AC
:010B170032AB
:010B180032AA
:010B190032A9
:010B1A0032A8
:010B1B0032A7
:010B1C0032A6
:010B1D0032A5
:010B1E0032A4
:010B1F0032A3
:010B200032A2
:010B210032A1
:010B220032A0
:03004300020800B0
:03005300020800A0
:10080000020A7600020AA6000207E900020A8E0028
:100810000208FA00020931000204FF000207FF008B
:10082000020B0200020B0300020B04000208B800D6
:10083000020B0500020B0600020B0700020B08006A
:10084000020B09000207FF00020B0A00020B0B005B
:10085000020B0C00020B0D00020B0E00020B0F002E
:10086000020B10000207FF000207FF000207FF0053
:10087000020B1100020B1200020B1300020B1400FA
:10088000020B1500020B1600020B1700020B1800DA
:10089000020B1900020B1A00020B1B00020B1C00BA
:1008A000020B1D00020B1E00020B1F00020B20009A
:0808B000020B2100020B2200E3
:1009FA0090E682E030E004E020E60B90E682E03008
:100A0A00E119E030E71590E680E04401F07F147EBA
:0C0A1A00001207A390E680E054FEF022DA
:10099F0030040990E680E0440AF0800790E680E09A
:1009AF004408F07FDC7E051207A390E65D74FFF02C
:0F09BF0090E65FF05391EF90E680E054F7F0225E
:020A2600A9071E
:100A2800AE4AAF4B8F828E83A3E064037017AD018B
:100A380019ED7001228F828E83E07C002FFDEC3E41
:080A4800FEAF0580DFE4FEFFB4
:010A50002283
:100A510090E682E044C0F090E681F0438701000017
:040A6100000000226F
:1007A3008E188F1990E600E054187012E519240191
:1007B300FFE43518C313F518EF13F519801590E608
:1007C30000E05418FFBF100BE51925E0F519E518F3
:1007D30033F518E5191519AE18700215184E600592
:0607E300120A6580EE22FF
:100A65007400F58690FDA57C05A3E582458370F9A4
:010A7500225E
:1005000012010002EF0201409AFB9AFB0100020176
:1005100001010A060002EF02014001000902FC008D
:10052000040101A0FA080B00020E030000090400F8
:1005300000000E0100000D240100015000006CDCE1
:10054000020101122402010102000000000000006B
:1005500000030000000C240502010040030000001D
:10056000001C240603FFFFFFFFFFFFFFFFFFFFFF4D
:10057000FFFFFFFFFF00010203000000000924034A
:1005800004010100030009040100000E0200000E36
:10059000240101370086000401010001000B24063C
:1005A00001010101000000001E24070102000400F7
:1005B00003000070080000A80C000048002A2C0A64
:1005C00000012A2C0A0009040101010E02000007A3
:1005D000058601000201080B020202000100090465
:1005E000020001020201000524001001042402029D
:1005F00005240602000524010001070581031000FF
:100600000209040300020A00000007058402000238
:10061000000705020200020000000403090412039F
:10062000480044004D00490032005500530042008C
:0D0630000A034A0041004E0049000000008E
:03000000020717DD
:0C071700787FE4F6D8FD75815702075E7C
:10096800EB9FF5F0EA9E42F0E99D42F0E89C45F0E5
:01097800225C
:10097900D083D082F8E4937012740193700DA3A30D
:1009890093F8740193C0E0E8C0E0227402936860B0
:06099900EFA3A3A380DF21
:10072300020313E493A3F8E493A34003F68001F2D6
:1007330008DFF48029E493A3F85407240CC8C333D7
:10074300C4540F4420C8834004F456800146F6DFA6
:10075300E4800B01020408102040809004D8E47E5A
:10076300019360BCA3FF543F30E509541FFEE4939B
:10077300A360010ECF54C025E060A840B8E493A362
:10078300FAE493A3F8E493A3C8C582C8CAC583CA8D
:10079300F0A3C8C582C8CAC583CADFE9DEE780BE45
:0104FE0000FD
:00000001FF
